:020000040000FA
:060000000217D8020A8875
:03001300020B4499
:03002B0002156952
:03003300020CD2EA
:03003B00020B991C
:030053000209BDE2
:03005B000212DBB3
:030063000212FC8A
:03006B00020C780C
:03007B00020CA9CB
:10008300020A1C010020FD00020196050000000188
:10009300561D681D00006E1D741D000000007A1DB2
:1000A300921D981D9E1D000000000000000001022B
:1000B3000408102040800801FF0D01010401FEFF28
:1000C3000000000000000006FFFFFFFFFFFFFF012D
:1000D30001010400C71A000000E8030000FFFF3F0E
:1000E3001BE803000064006400B801A0BB0D00A07E
:1000F300BB0D00020200F8FF0705021E0401051EE6
:1001030002051E020A0A01010808010310270280E2
:100113003E0102FEFFE8030A050001FFFF010A1486
:1001230001E0C503423F1A51123FF304B53F0000FB
:10013300803E010105030101FF0F10FEFFED3E00AC
:100143000000005F3D00000000FF000000FF00C052
:1001530082C083E9FA5407F8743828F582E4341E20
:10016300F583E0F879006022EAC4540F5403600871
:1001730014600914600D8012E5808002E5905870C8
:10018300078007E5A0586002790102027BC082C0A4
:1001930083120280400478008003120338E8F4FCE1
:1001A300EB600814601214601C802BEA6005E842BF
:1001B300808023EC5280801EEA6005E8429080161E
:1001C300EC52908011E8C39420500BEA6005E8429A
:1001D300A08003EC52A002027BC082C08312028083
:1001E300400478008003120338E8F4FCE87003024B
:1001F300027BEB600814602C146050807BEC52F39C
:1002030074016A601274026A601574046A7003E808
:10021300428FE842FD806153F7DFEC528F80F34356
:10022300F72080F6EC52F474016A601274026A607B
:100233001574046A7003E842F6E842FE803A53F705
:10024300BFEC52F680F343F74080F6E8C3942050A6
:1002530027EC52F574016A601274026A6015740423
:100263006A7003E842F7E842FF800D53F77FEC52D0
:10027300F780F343F78080F6D083D08222E9C45419
:100283000F5403FB743F59C394302274F8120ECEFB
:10029300E9C4540F5403FE743F59C39430400478A7
:1002A300008003120338E8F4FBE86077EE6008147B
:1002B300602B14604E806CEB52F352FD74016A6044
:1002C3000F74026A600F74046A7058E8428F805397
:1002D30053F7DF800343F720EB528F8046EB52F452
:1002E30052FE74016A600F74026A600F74046A70CC
:1002F30032E842F6802D53F7BF800343F740EB52B9
:10030300F68020E8C39420501AEB44E0FB52F552E8
:10031300FF74016A601274026A601574046A7003E0
:10032300E842F77F0102125C53F77FEB52F780F349
:1003330043F78080F6E95407FC74382CF582E434E3
:100343001EF583E0F822C082C08312028040047845
:10035300008003120338E8F4FCE86038EB6008140B
:10036300601214601C802DEA6005E842FD8025ECD4
:1003730052FD8020EA6005E842FE8018EC52FE80C0
:1003830013E8C39420500DEA6005E842FF8005742A
:10039300E04C52FF02027BC082C083120280400401
:1003A30078008003120338E8F4FCE8603FEB600850
:1003B3001460151460228034EA6005E842808003EB
:1003C300EC5280E842FD8024EA6005E84290800315
:1003D300EC5290E842FE8014E8C39420500EEA6089
:1003E30005E842A08003EC52A0E842FF02027B74BE
:1003F3003F59C394305042E9C4540F540360071467
:100403006013146020227801E8F4FBEA602414608E
:100413001814601922740F59C3940450047802808D
:10042300E7780480E3780880DFE8428C22E58C5883
:100433006004EB528C22E8428C221217E8601D12F2
:1004430017F77005191919801A121679701F1216E9
:1004530051C37003E6673319191940071818182296
:1004630008080874FFF618F618F618F62212165143
:10047300601712189D702192F01218A67019501768
:1004830020F014080808090909E7F61819E7F6180F
:1004930019E7F61819E7F6221218A660E6E869705C
:1004A3001F0808E62480F608E436F618547FB47F64
:1004B3000CE654806007F6E418F618F622181822A2
:1004C300E9C6CC08C6CD08C6CE08C6CFC0E0E8C092
:1004D300E0EAC0E0EBC0E009E9F809E7FA09E7FB65
:1004E300E6F918E6F8C3EC98ED99EE9AEBC2E7F556
:1004F300F0EFC2E795F0500E600CEBCFFBEACEFABB
:10050300E9CDF9E8CCF8EAA2E7D2E7FAEB33FB133B
:10051300F5F0EEA2E7D2E7FEEF33FFC5F013A2E753
:1005230030E601B313C5F0C3C0E0C0F07F00C39B46
:10053300FB605E9418600F401D14601AD0E023F92D
:10054300D0E0F802061E8AF0E9486003D2F0E4AF77
:10055300F0FAF9F8803BEB30E40D89F0EA6003D25E
:10056300F0E4AFF0F9CAF8EB30E30D88F0EF600286
:10057300D2F0AFF0E4CAC9F8EB54076014FBC3EA46
:1005830013FAE913F9E813F8EF135002D2E0FFDB93
:10059300EDD0E0C0E030E739C3E49FFFF5F0EC981D
:1005A300FC42F0ED99FD42F0EE9AFE42F0D0E0F904
:1005B300D0E0F8E5F0607AE923F9EE20E742D802CB
:1005C3008067C3EF33FFEC33FCED33FDEE33FE8086
:1005D300EAEC28FCED39FDEE3AFED0E023F9D0E059
:1005E300F84002801BC3EE13FEED13FDEC13FCEF8A
:1005F300135002D2E0FF08B800067F7F74FF802EFD
:10060300EF3350178CF020F00260100CBC000C0D7F
:10061300BD00080EBE000408E860DFE933E813FFFD
:10062300EE2313FE4F4D4C8008E95480FFE4FEFD9A
:10063300FCEE33EF33F47004FCFD7E80D0E0FBD09E
:10064300E0FAD0E0F8D0E0CFC618CEC618CDC61871
:10065300CCC6F9221217E87004181818221217F7DB
:10066300700D74FFF61819F61819F61819F622E723
:10067300548066F61218A6700F12189D70F014F6C7
:1006830008F608F608F680D112189D700CF608F6E5
:1006930008768008E6447F80EC121654700C12161C
:1006A3007C60BFE65480F6E480BB12167C700519AB
:1006B300191980A5E869700C763F18768018F6182A
:1006C300F6E8F922E6CDC0E018ECC0E0E633CD331E
:1006D300CDD313F6E719FCE7191933CC33C3947F51
:1006E300400ECD9D502408E65480F6E418F6800FA2
:1006F300F4043D14501408E6447FF6187680E41899
:10070300F618F6D0E0FCD0E0FD22CCD313CCFD18D4
:10071300E4C6CBC0E018E4C6CAC0E00808ED08C6CA
:1007230033E613F618E433C675F003C3CA97CA0950
:10073300CB97CB199C40047D08802EBD0003020893
:100743000016B6FF050606081618C3CA33CACB330C
:10075300CB33CA27CA09CB37CB193CC37D08803EAC
:10076300187D0820E75CC633C6CA33CACB33CB3304
:10077300DDF1D5F0EB30E77BCA97CA09CB974ACBBB
:10078300199C406F4B7025E620E0218066187D0898
:10079300C3CA97CA09CB97CB199CD3C633C6CA33EE
:1007A300CACB33CB3350C9DDE7D5F0E1D3E4C6364A
:1007B300C608C636C608C636C608C636C6181818CA
:1007C3008031C3CA97CA09CB97CB199CB34097C64C
:1007D30033C6CA33CACB33CB33DD34D5F02EC6A2EE
:1007E300E0C640C8CA27CA09CB37194A70BECB3CFA
:1007F300B480B90808E63308E633601F181818D028
:10080300E0FAD0E0FBD0E0FCD0E0FD22187D08CA7E
:1008130027CA09CB37CB193CD3808013F618E4B62B
:100823007F11F618B6FF0EF618C60470D2080876C4
:100833008080CAF618F618F680C5001217E8604FD4
:100843001217F76012E7548066F6121679701112C8
:10085300189D703B090909F4F618F618F618F622E4
:1008630012165170151218A608080860EAE6447FAC
:10087300F618768018E4F618F6221218A6601612F7
:10088300189D7012E4F608F608F608E65480F60997
:10089300090918181822EAC0E0EBC0E0ECC0E0ED4B
:1008A300C0E0E687F0A4FBACF008E687F0A42CFCDC
:1008B300E435F0FA1809E687F0A42C4B60027401C2
:1008C300CA35F0FCE433FB09E687F0D2F7A42CCB5E
:1008D30035F0FC1908E687F0A42BCC35F0FBE433A4
:1008E300FD0819E687F0D2E7A42C4ACB35F0CD34C6
:1008F30000FC09E687F0D2E7A42DCC35F0FDE43304
:10090300FA0918E687F0D2F7A42CCD35F0CA3400E3
:10091300FC08E687F0D2E7D2F7A42ACC35F07A7E3A
:1009230020E70B0ACB33CBCD33CDCC33CC33CB3316
:1009330050147004ED30E00ED2F1E4CD3DCDCC3C4B
:10094300CC3B5005DA05C2F1EB547FC63308E633DE
:1009530092F0FBE73309E733C39A502D2B70190C40
:100963000D4C4D70151806E608C333700D20F10ABF
:10097300A2F013F6E418800B4024E4F630F002767C
:100983008018F618F618F68024D33B14501074FF21
:10099300A2F013F6187680E418F618F6800FA2F08A
:1009A30013F618E63303F618ECF618EDF6D0E0FD6F
:1009B300D0E0FCD0E0FBD0E0FA22C0E074F1120FEB
:1009C30034A2AFE433F509D2AF85A708AFA1EF5541
:1009D30008FE74105E6006121A3275A1EF74085E89
:1009E3006008121A3875A1F78024EFA2E092F0E5AF
:1009F30008A2E082F05017906198E0F8900504E0B7
:100A0300C398A2D265D0335002E8F075A1FEE50980
:100A1300A2E092AF7F02020F93C0E074F2120F3490
:100A2300A2AFE433FED2AF9061A4E0F8759B00E57A
:100A33009158540860087591F7121A808023E59144
:100A430058541060087591EF121A868014E591A22C
:100A5300E092F0E8A2E082F05007E0C2E0F0121B5F
:100A6300E29061A3E0F8E5E9585404600E121BB864
:100A730075E9FB906193E0A2E640F2EEA2E092AF4B
:100A83007F01020F93C0E074F2120F34A2AFE4337C
:100A9300FED2AF9061A5E0F8E5BF58540460067537
:100AA300BFFB121BFA80D4C3E498F8E499F9120A45
:100AB300EB8026C3E49AFAE49BFBE920E7E9120AF8
:100AC300EBE498F8E499F922C3E498F8E499F9126D
:100AD3000AEBE498F8E499F9C3E49AFAE49BFB225D
:100AE300EB20E7CFE920E7E0B90010BB0008E88A74
:100AF300F084F8AAF022E4FBC8FA22EB70227B1000
:100B0300C833C8C933C9335007C39AC3DBF280065D
:100B13009A50012ADBEAC833F4C8C933F4C9FA226C
:100B230075F008E4C833C8C933C933C99AC99B509F
:100B330004C92AC93BD5F0ECFBC833F4C8E4C9FAAD
:100B430022C0E0C0D0E8C0E0E9C0E0C082C083A812
:100B5300C1E8C0E09004B1E0F8743028F582E434D1
:100B630004F583D0E0F09004B0E0F8A3E0687006E9
:100B7300E5959004B3F09004B1E004F0C394804091
:100B830002E4F0A374C6F0D083D082D0E0F9D0E0C1
:100B9300F8D0D0D0E032C0E0C0D0E8C0E0E9C0E097
:100BA300C082C0839004F4E0F8A3E0687008539A0D
:100BB300FBA374018022C2E99004F4E0F8740128D5
:100BC300F074B428F582E43404F583E0F5C19004AD
:100BD300F4E0C394404002E4F080AC120C2930F0FE
:100BE30039120C6E8034120C2920F01430E72B7468
:100BF300FFFCFBFA747F8022E4FCFBFA7480801A0A
:100C0300B48008BC00F2BB00EF800F50EBF9E4C3E3
:100C13009AFAE49BFBE49CFCE499C6CC18C6CB1877
:100C2300C6CA18C6F922E4C9C608CAC608CBC6D3C1
:100C3300330308CCC63392F0C3947F402E941840FC
:100C430019C9B90704CACBCC225025C309CA33CA70
:100C5300CB33CBCC33CC33D9F422F4600DC9CCC322
:100C630013CB13CBCA13CAD9F6CC22E4FCFBFA226A
:100C730014FCFBFA22C0E074F2120F34A2AFE43387
:100C8300FED2AF9006AAE05589600FE589FA790094
:100C9300121EB89006AAE0F45289C2C5EEA2E092F1
:100CA300AF7F01020F93C0E074F2120F34A2AFE4DE
:100CB30033FED2AF9006ABE0558A600FE58AFA792E
:100CC30001121EB89006ABE0F4528AC2EB80CDC08D
:100CD300E074F2120F34A2AFE433FED2AF9006AC4D
:100CE300E0558B600FE58BFA7902121EB89006ACC3
:100CF300E0F4528BC2E880A4080808EAC0E0EBC025
:100D0300E086F0E7A4FA180986F0E7A42AFA18099E
:100D130086F0E7A42AFA180986F0E7A42AFA1986C6
:100D2300F0E7A4FBE5F02AFA190886F0E7A42BFB09
:100D3300E5F03AFA190886F0E7A42BFBE5F03AFA56
:100D430018180986F0E7A4C5F02BFBE43AFA190852
:100D5300E7C5F0C6A426F6E5F03BFBE43AFA1886AD
:100D6300F0E7A4F6E5F00826F6E43B08F6E43A08D3
:100D7300F6D0E0FBD0E0FA22080808E630E71112CB
:100D830016B5120D93080808C64480C61818182211
:100D9300181818E9799EC608CAC608CBC608CCC677
:100DA300C370207996CACBCC7019798ECBCC7013D3
:100DB3007986CC700EF9802ACA33CACB33CBCC33B5
:100DC300CC331930E7F2CCCBCA3350147004EA3079
:100DD300E00DE4CA3ACACB3BCBCC3CCC500209C3AE
:100DE300E913C6CC182313C6CB18C6CA18C6F922F2
:100DF300E4CFC0E0E4CEC0E0E4CDC0E0E4CCC0E0AA
:100E030075F020E626F608E633F608E633F608E63C
:100E130033F6181818EC33FCED33FDEE33FEEF33E5
:100E2300FFC3EC9709ED9709EE9709EF9719191985
:100E3300400FFFEC97FC09ED97FD09EE97FE19199A
:100E430006D5F0BFECF709EDF709EEF709EFF7194F
:100E53001919D0E0FCD0E0FDD0E0FED0E0FF222560
:100E630018C582C0E0E51934FFC583C0E0E518C3A7
:100E7300958224F810AF0885831985821880088528
:100E83008319858218D2AFCEF0A3E520F0A37808AA
:100E9300E608F0A3DEFAEFF0A3E58124FAF8E6080A
:100EA300F0A3E608F0A3E608F0A30808E608F0A319
:100EB300E608F0A315811581D0E0FED0E0F8158196
:100EC30015811581E8C0E0EEC0E0222518C582C077
:100ED300E0E51934FFC583C0E0E518C3958224F922
:100EE30010AF088583198582188008858319858248
:100EF30018D2AFCEF0A3E520F0A37808E608F0A35C
:100F0300DEFAEFF0A3E58124FBF8E608F0A3E60898
:100F1300F0A30808E608F0A3E608F0A315811581FD
:100F2300D0E0FED0E0F815811581E8C0E0EEC0E026
:100F330022C0D02518C582C0E0E51934FFC583C09F
:100F4300E0E518C3958224F310AF088583198582E1
:100F5300188008858319858218D2AFC8F0A3E9F0F9
:100F6300A3EAF0A3EBF0A37908E709F0A3D8FAEC1E
:100F7300F0A3EDF0A3EEF0A3EFF0A3D0E0F0A3D045
:100F8300E0F0A3D0E0F0A3E520F0A3E5F0F0A32286
:100F9300851983851882E0C0E0A3E0F9A3E0FAA3F2
:100FA300E0FBA37808E0F608A3DFFAE0FCA3E0FD8A
:100FB300A3E0FEA3E0FFA3E0C0E0A3E0C0E0A3E062
:100FC300F5D0A3E0F520A3E0A3F5F010AF088583E7
:100FD300198582188008858319858218D2AFD0823B
:100FE300D083D0E0F8D0E0321216B8181818120DDA
:100FF300F3121787191919221217871919190808D3
:1010030008E618181820E7E0120DF31216B818189E
:101013001822090909E719191920E7DC080808E665
:1010230018181820E703020DF31216B8181818122F
:101033000DF31216B8181818121787191919221256
:101043001888B90003021081E49003D97835791B1D
:101053008002F0A3D8FCD9FA7A0D7B1E9000867823
:10106300CD79018015E493A3AD82AE838A828B830D
:10107300F0A3AA82AB838D828E83D8E9D9E77582E8
:10108300EF7583BB74071214E0758222758339747C
:10109300001214E01E75F0108E1A8F1B85821F85B7
:1010A300831E851882851983E0CEA3E0CF851F8236
:1010B300851E83EBC9EAC8EDCBECCAC3E833C8E9A4
:1010C30033C9EA33CAEB33CBC3EA9EF51DEB9FF575
:1010D3001CB35004AB1CAA1DEC33CCED33CDD5F0BF
:1010E300DAAE1AAF1B221217E8601C1217F760174B
:1010F3001218A6700712189D7001D322C0D01218BF
:101103009D7006D0D0B322C32233D0D0501430E028
:10111300F6C3E7960809E7960809E7960809E796EC
:10112300B32220E0D5E6970809E6970809E6970871
:1011330009E697B3221217E8601B1217F76016121D
:1011430018A6700712189D600CB322C0D012189D08
:101153007005D0D022C32233D0D0501330E0EBC37C
:10116300E7960809E7960809E7960809E796222013
:10117300E0E4E6970809E6970809E6970809E69781
:1011830022D083D082ECC0E0EDC0E0E493A3FCE482
:1011930093A3FDED4C600D12129CEC24FFFCED3487
:1011A300FFFD80EFE493A3FCE493A3FDED4C600DFE
:1011B3001213A3EC24FFFCED34FFFD80EFD0E0FD20
:1011C300D0E0FCE493A3C0E0E493C0E022D083D05A
:1011D30082E9C0E0E493A3C386F0C5F095F0F90873
:1011E300E493A386F0C5F095F0700BE493A3C39941
:1011F3004005E9048002A3E475F002A42582F58288
:10120300E5F03583F583D0E0F9E493A3C0E0E493FC
:10121300C0E022851983851882E0A3FEE0A3F520B0
:101223007808E0A3F608DFFAE0A3FFE0A3C0E0E05C
:10123300A3C0E0E0A3C0E0E0A3C0E0E0A3C0E010EF
:10124300AF088582188583198008858218858319DC
:10125300D2AFD083D0820214E6851983851882E049
:10126300A3FEE0A3F5207808E0A3F608DFFAE0A3E5
:10127300FFE0A3C0E0E0A3C0E0E0A3C0E0E0A3C0C0
:10128300E010AF0885821885831980088582188548
:101293008319D2AFD083D08222C0E0C3E4939608EF
:1012A3007401939618400FE49366700808740193D1
:1012B300661870007019A3A3C3E49396087401938E
:1012C3009618A3A3400DD0E0D0E0D0E00211C0A354
:1012D300A3A3A3A3A3D0E022C0E074F2120F34C2ED
:1012E300D9901E54E0C39400A2D265D0334005E0E8
:1012F300F91222427F01020F93C0E074F2120F34FD
:10130300C2DC901E56E0F9C39400A2D265D03340EC
:101313000312224280DE7404800474028000CCC075
:10132300E0EDC0E0E518C39CCCAD1950011D10AF32
:10133300068C188D1980068C188D19D2AF12146281
:10134300D0E0FDD0E0FC2274028000CCC0E0EDC010
:10135300E0E518C39CCCAD1950011D10AF068C18E5
:101363008D1980068C188D19D2AF12141ED0E0FD92
:10137300D0E0FC221217E860251217F7602012183C
:10138300A6700302189D080808E76670101819E78D
:1013930066700A1819E76670041819E76622F422C2
:1013A300C0E0C0F088F0E4936670080874019366A7
:1013B300187000A8F0A3A3700BD0F0D0E0D0E0D059
:1013C300E00211C0A3A3D0F0D0E022D083D082CC1E
:1013D300C0E0E493A360061214831470FAE493A3A9
:1013E30060061215E61470FAD0E0FCE493A3C0E0A3
:1013F300E493C0E022C008C3E096F50808A3E09692
:10140300420808A3E096420808A3E0964208A2D245
:1014130065D033E5087001D3D00822CAC0E0E49355
:10142300A3C582CCC582C583CDC583F0A3C582CCB9
:10143300C582C583CDC583DAE5D0E0CA22A2E7928F
:10144300D65002F40430F70663F0FF05F0B340030F
:1014530084800384F40430D60563F0FF05F022CAC8
:10146300C0E0E0A3C582CCC582C583CDC583F0A30C
:10147300C582CCC582C583CDC583DAE6D0E0CA2256
:10148300C0E0E493A3D39C5010E493A3C39C400A0D
:10149300D0E0D0E0D0E00213EBA3A3A3D0E022700E
:1014A30009080808226016181818C6C333C608C6E8
:1014B30033C608C633C608C633C6D5E0EA22C00819
:1014C300C3E096F50808A3E096420808A3E0964215
:1014D3000808A3E09645087001D3D00822C09FF501
:1014E3009FE473D09F22D083D082C09FE493C0E057
:1014F300740193C0E0740293F59F227404800A740C
:10150300038006740280027401C0E0F404121534EF
:10151300D0E01218332200C0D0251810AF08F518F8
:10152300500C05198008F51850020519D2AFD0D018
:10153300222518F58210AF08F518400C15198008FC
:10154300F51840021519D2AF85198322BB0102E7B2
:1015530022C082C08389828A83BB0003E08002E4C5
:1015630093D083D08222C0E0C0D0E8C0E0A8A8D244
:10157300AFC2C7E8A2E792AFD0E0F8D0D0D0E03254
:101583006017080808C6A2E713C618C613C618C60C
:1015930013C618C613C6D5E0E9226016080808C6A4
:1015A300C313C618C613C618C613C618C613C6D5A2
:1015B300E0EA22C3E0C696F608A3E0C696F608A3BF
:1015C300E0C696F608A3E0C696F6222518F8E43599
:1015D30019F9222518FAE43519FB222518FCE435FC
:1015E30019FD22C0E0E493A36C7009D0E0D0E0D0F1
:1015F300E00213EBA3A3D0E022251810AF08F518DF
:10160300400C15198008F51840021519D2AF22E7CE
:101613006670100809E766700A0809E7667004082F
:1016230009E76622C3E09608A3E09608A3E09608BC
:10163300A3E096A2D265D03322E066701008A3E03F
:1016430066700A08A3E066700408A3E0662219190D
:1016530019E70947097009E727097005E733F422F9
:101663000922C3E096F008A3E096F008A3E096F001
:1016730008A3E096F022181818E60846087009E651
:1016830026087005E633F4220822C3E4939608740F
:101693000193960874029396087403939622C3E603
:1016A30097F60809E697F60809E697F60809E69714
:1016B300F622181818E4C396F608E496F608E4969A
:1016C300F608E496F622E493F608740193F6087498
:1016D3000293F608740393F622E667F60809E667B1
:1016E300F60809E667F60809E667F622E056F60803
:1016F300A3E056F608A3E056F608A3E056F622E662
:1017030057F60809E657F60809E657F60809E657B3
:10171300F622E627F60809E637F60809E637F6085B
:1017230009E637F622E026F608A3E036F608A3E03A
:1017330036F608A3E036F622E026F008A3E036F0FA
:1017430008A3E036F008A3E036F022E647F60809DE
:10175300E647F60809E647F60809E647F622700465
:1017630022600D18C6C333C608C633C6D5E0F418C5
:1017730022E056F008A3E056F008A3E056F008A3D1
:10178300E056F022E4C397F709E497F709E497F7E3
:1017930009E497F722600D08C6A2E713C618C6131B
:1017A300C6D5E0F322C6F4C608C6F4C608C6F4C616
:1017B30008C6F4C622C3E09608A3E09608A3E09601
:1017C30008A3E09622C3E7960809E7960809E79677
:1017D3000809E7962275D00075813F7518D97519E8
:1017E3000300021042E6084608C3134608336002AA
:1017F300E633F422E7094709C3134709336002E7D5
:1018030033F422600C08C6C313C618C613C6D5E04A
:10181300F422E6F008A3E6F008A3E6F008A3E6F056
:1018230022E0F608A3E0F608A3E0F608A3E0F62218
:10183300CAC0E0E6F0A308DAFAD0E0FA22E0FCA39B
:10184300E0FDA3E0FEA3E0FF22EAF0A3EBF0A3ECAC
:10185300F0A3EDF022E0FAA3E0FBA3E0FCA3E0FD9C
:1018630022E8F0A3E9F0A3EAF0A3EBF022ECF0A363
:10187300EDF0A3EEF0A3EFF022E0F8A3E0F9A3E08C
:10188300FAA3E0FB22E5C754F84401F5C779012226
:101893002518F582E43519F58322E72719471947F7
:1018A300194722E62618461846184622C2AF75D6AF
:1018B3009F020000221214E9DEBA071214E965BB85
:1018C300071214E9A1BB071214E97DD9071214E921
:1018D3008DD9071214E94A99071214E9AD99071231
:1018E30014E9FC99071214E9299A071214E97F9A5B
:1018F300071214E9C6FF021214E963B5071214E9CB
:10190300ADB5071214E943B6071214E9C9B60712B5
:1019130014E9FAB6071214E912B7071214E986B7E5
:10192300071214E99CB7071214E9AFB7071214E9B9
:10193300B9B7071214E92EB3051214E97AB80512E0
:1019430014E9ACB8051214E9D8B8051214E980B942
:10195300051214E976BC051214E990E8051214E99E
:10196300FCE8051214E9ACE9051214E977EA05125B
:1019730014E9CDEB051214E9BBEC051214E9C2ED31
:10198300051214E9A2EF051214E9D5EF051214E9C3
:101993003FF0051214E966F0051214E9CCF10512C3
:1019A30014E950F2051214E964F2051214E9DAF2AB
:1019B300051214E9FF92061214E9A595061214E91B
:1019C3000D97061214E99499061214E90AF4061203
:1019D30014E936F4061214E9A7F6061214E9E7F639
:1019E300061214E927F7061214E93BF7061214E965
:1019F30054F7061214E945F8061214E9EAF8061238
:101A030014E9FEF8061214E98EC7071214E9B2C7E7
:101A1300071214E9CBC7071214E9FDC7071214E92B
:101A23002DC8071214E95AC8071214E9BCC80712D3
:101A330014E9CBC8071214E9D5C8071214E9E2C8A0
:101A4300071214E938B0071214E958B0071214E961
:101A530097B0071214E9B2B0071214E9D1B0071214
:101A630014E937B1071214E940B1071214E99DB123
:101A7300071214E9C1B1071214E982B2071214E97B
:101A83008FB2071214E9A0B2071214E9C4D70712E0
:101A930014E9DCD7071214E908D8071214E954F93A
:101AA300061214E9A8FA061214E9B6FA061214E9A2
:101AB300C9FA061214E9DEFA061214E9F3FA061259
:101AC30014E906FB061214E97AFB061214E9DFFB9C
:101AD300061214E981FC061214E945FD061214E905
:101AE30055FD061214E964FD061214E989D40712A0
:101AF30014E9ADD4071214E9D5D4071214E9FDD4BF
:101B0300071214E9A6D6071214E9CCB7071214E991
:101B1300F3B7071214E911B8071214E984B80712CE
:101B230014E969A7071214E982A7071214E98EA71B
:101B3300071214E9A2A7071214E9C0A7071214E9B0
:101B4300CAA7071214E9D4A7071214E9E7A70712D3
:101B530014E971A8071214E9E6A8071214E91AA9EF
:101B6300071214E968A9071214E9B5A9071214E9C1
:101B7300D0A9071214E9DAA9071214E900AA071277
:101B830014E965AA071214E947FF011214E969FF72
:101B9300011214E952D9071214E98189061214E9D2
:101BA300AB89061214E9C889061214E9DB89061207
:101BB30014E9F189061214E94F8A061214E9878A97
:101BC300061214E97F8E061214E9C48F061214E973
:101BD300F78F061214E95A90061214E9D3910612EC
:101BE30014E9FB91061214E91092061214E92092EB
:101BF300061214E96492061214E9BF92061214E95C
:101C0300CF92061214E91ECE071214E938CE07123A
:101C130014E960CE071214E979CE071214E99DCEB8
:101C2300071214E9BBCE071214E9D2CE071214E946
:101C330000CF071214E91BCF071214E94FD807127C
:101C430014E9D8A0071214E9E8A0071214E9EDA1DA
:101C5300071214E91FA2071214E945A2071214E997
:101C630068A2071214E97FA2071214E9B9A20712A6
:101C730014E91EA3071214E960A3071214E99FA332
:101C8300071214E9D0A3071214E907A4071214E9F1
:101C9300F1B4061214E9C7B5061214E9F2B5061237
:101CA30014E90FB6061214E90AB7061214E94CB781
:101CB300061214E9BAB7061214E90CB8061214E9AD
:101CC3007BB8061214E9B2B9061214E9AFBA0612C8
:101CD30014E9208D071214E9758D071214E9F58DA7
:101CE300071214E9088E071214E92F8E071214E95C
:101CF300D28E071214E9B38F071214E934A5061222
:101D030014E95FA5061214E92AA6061214E971A6BE
:101D1300061214E902A7061214E97BAA061214E9B3
:101D230033AC061214E936C8041214E976C8041257
:101D330014E975CA041214E99BCA041214E995CD77
:101D4300041214E9D1CE041214E93BD2041214E9AB
:101D5300A5D2041214E93FD3041214E992D3041256
:101D630014E9FAD3041214E94AD4041214E97CD412
:101D7300041214E97FD4041214E98FD4041214E971
:101D8300A1D4041214E9ECD4041214E9A9D6041260
:101D930014E916D7041214E969D7041214E905D813
:101DA300041214E991D8041214E995DA041214E91F
:101DB30034DC041214E9FBDD041214E9DFDE04123F
:101DC30014E993E0041214E98ECB071214E9A8CBAB
:101DD300071214E9EACB071214E91DCC071214E920
:101DE30037CC071214E950CC071214E983CC07123D
:101DF30014E9A5CC071214E90FCE061214E940CE5C
:101E0300061214E994CE061214E964CF061214E9FB
:101E130096CF061214E9C3CF061214E914D00612A2
:101E230014E93ED0061214E962D0061214E988D0F0
:101E3300061214E90AD1061214E994D1061214E920
:101E4300C5D1061214E90BD2061214E929D20612DF
:101E530014E94DD2061214E96DD2061214E9A3D285
:101E6300061214E902D3061214E924D3061214E964
:101E730083D3061214E992D3061214E9CBD30612C4
:101E830014E9719C061214E9AB9C061214E9EA9D4D
:101E9300061214E9169F061214E90DA5061214E999
:101EA300DAD3061214E9E1D4061214E922D5061294
:101EB30014E996D5061214E96ED0071214E9DFD09F
:101EC300071214E944D1071214E929DE051214E9B3
:101ED30048DF051214E956E0051214E99DE10512E5
:101EE30014E9F5E1051214E93AE2051214E948E2AE
:101EF300051214E978E2051214E90EE3051214E958
:101F03006AE4051214E976E5051214E90EE70512F1
:101F130014E985E8051214E9A5FC051214E900FD8E
:101F2300051214E939FD051214E921FF051214E91C
:101F3300EDEE061214E932EF061214E968EF061209
:101F430014E98FF0061214E934F2061214E9A1F22F
:101F5300061214E9ECF3061214E9F4F2051214E97B
:101F630005F4051214E97BF4051214E974F505125E
:101F730014E9C0F5051214E93BF9051214E91BFA3B
:101F8300051214E970FA051214E9C5FA051214E9E9
:101F9300A5FB051214E9C6C4071214E903C5071209
:101FA30014E932C5071214E946C5071214E96E8411
:101FB300071214E98085071214E96386071214E9EE
:101FC3008486071214E94D87071214E9EF87071275
:101FD30014E92088071214E9A088071214E9ADBB9D
:101FE300061214E90FBC061214E9A3BC061214E985
:101FF30032BE061214E973C1061214E989C106122E
:1020030014E92AC6071214E94AC6071214E95EC77F
:10201300071214E961C7071214E9D8CC071214E9AF
:102023000ECD071214E928CD071214E96ACD071261
:1020330014E97ACD071214E914CE071214E9F6ADA8
:10204300061214E900AE061214E93AAE061214E9B8
:10205300A3AE061214E9C0AE061214E962AF06126B
:1020630014E96BAF061214E9B0AF061214E9D9AF45
:10207300061214E9E6AF061214E957B0061214E982
:10208300E2B0061214E930B1061214E96EB1061279
:1020930014E9D3B1061214E9F6B1061214E96DB2CC
:1020A300061214E9C4B2061214E9FFB2061214E9C7
:1020B30034B3061214E946B3061214E958B30612F0
:1020C30014E977B3061214E980B3061214E93BB49A
:1020D300061214E987B4061214E9C5B4061214E90A
:1020E300ECC8071214E92CCA071214E936D90712EF
:1020F30014E95FA4071214E9A3A4071214E9EBA4DB
:10210300071214E9D1A6071214E960A7071214E90C
:10211300B7D5071214E90080051214E924810512CA
:1021230014E95E81051214E90883051214E9328368
:10213300051214E9A785051214E9E785051214E9C8
:102143007D87051214E91A88051214E96C880512B3
:1021530014E90F89051214E94789051214E98989DD
:10216300051214E9F88A051214E9468C051214E9DC
:10217300778E051214E9A58E051214E9CC8E05128B
:1021830014E9D58E051214E9258F051214E9B78FCA
:10219300051214E9E692051214E96993051214E98C
:1021A300DDFF041214E9F3FF041214E94A91071244
:1021B30014E96091071214E90492071214E9439297
:1021C300071214E96092071214E99192071214E9B5
:1021D300DE92071214E91193071214E94C930712C4
:1021E30014E94195071214E94BC2061214E9F1C32D
:1021F300061214E932C5061214E94AC5061214E997
:10220300C888071214E9FF89071214E95E8B0712C5
:1022130014E944F7021214E96BF8021214E96AF99B
:10222300021214E9C0FA021214E9E5FB021214E9DE
:10223300BFFC021214E9D2BD071214E980BE0712D3
:1022430014E9B693051214E97B94051214E98694F4
:10225300051214E93795051214E99695051214E948
:102263008D97051214E9FD97051214E9029A0512D8
:1022730014E93B9A051214E9E49C051214E90C9D38
:10228300051214E98E9D051214E9099E051214E93D
:10229300939F051214E9E89F051214E966A005123D
:1022A30014E932A5051214E928DF061214E94FDFF9
:1022B300061214E9AAE1061214E9D1E1061214E99F
:1022C30026E2061214E958E3061214E9D4E30612CF
:1022D30014E9CEB2071214E9E6B2071214E931B4D5
:1022E300071214E938B4071214E961B4071214E9A8
:1022F30082D3071214E9E1D3071214E91FD407129A
:1023030014E960D4071214E99CE4061214E9C2E448
:10231300061214E902E6061214E9F7E6061214E9B6
:102323001EE7061214E9B7E7061214E90BE80612D2
:1023330014E926E9061214E92EC8061214E9D0C8D6
:10234300061214E9F0C9061214E942CB061214E985
:10235300F6CC061214E929BE051214E97DBE051256
:1023630014E9A7BF051214E9D3C0051214E9C1C1CA
:10237300051214E95DC4051214E914C6051214E923
:102383005FC6051214E96DC8051214E93F9D0712D3
:1023930014E9929D071214E9159E071214E9A1A0EE
:1023A300071214E93DCA071214E9B7CA071214E960
:1023B300D2CA071214E9ADBF071214E9C2C007124B
:1023C30014E92AC1071214E981C1071214E9CCC127
:1023D300071214E91CC2071214E937C2071214E9E1
:1023E30038C3071214E993C3071214E98FC4071201
:1023F30014E99DFD061214E906FE061214E97CFE9B
:10240300061214E9A4FE061214E92FD6071214E9E2
:1024130079D6071214E986D9061214E9E3D906120C
:1024230014E9BBDA061214E92ADB061214E94EDBBF
:10243300061214E935DC061214E995DC061214E9D8
:1024430046DD061214E9BDDD061214E9D5D80712DC
:1024530014E9E8D8071214E94ECF071214E95DCF47
:10246300071214E9BDCF071214E9F9D8071214E9CA
:10247300FFD8071214E905D9071214E900800412E2
:1024830014E90C80041214E96E80041214E97880B4
:10249300041214E90B81041214E94781041214E9AC
:1024A3000382041214E91682041214E966820412E8
:1024B30014E9F582041214E92B83041214E9AD83A1
:1024C300041214E95C85041214E93087041214E938
:1024D3001688041214E96889041214E9BE8B0412E5
:1024E30014E9278D041214E9C48D041214E96C92C3
:1024F300041214E95A93041214E9F893041214E928
:102503002494041214E9C094041214E9D594041217
:1025130014E9F994041214E95F95041214E97C9503
:10252300041214E9A695041214E92397041214E97A
:102533004497041214E9CA97041214E97098041218
:1025430014E9B798041214E92A99041214E9B69904
:10255300041214E91A9A041214E97A9A041214E977
:10256300109B041214E98B9B041214E9BE9B041202
:1025730014E9209C041214E9829D041214E9F29DCB
:10258300041214E9A19E041214E9F79F041214E93A
:102593008FA0041214E9FBA0041214E93EA3041251
:1025A30014E9CAA4041214E9F5A4041214E9DBA67D
:1025B300041214E971A8041214E97AA9041214E9A3
:1025C30054A5051214E90BA6051214E912A7051266
:1025D30014E990A7051214E9D2A8051214E9F3A887
:1025E300051214E9ABA9051214E956AA051214E958
:1025F30036AE051214E952B0051214E9B9B1051249
:1026030014E90BD8071214E9BDD6031214E918D73D
:10261300031214E9A2D7031214E913D9031214E91C
:10262300EBD9031214E9D4DA031214E9EBDA031237
:1026330014E93DDB031214E9A1DB031214E9E2DB25
:10264300031214E9F5DB031214E94BDC031214E95A
:10265300A4DC031214E9BCDC031214E949DF0312FE
:1026630014E9DEDF031214E908E0031214E951E070
:10267300031214E941E2031214E9ABE2031214E971
:102683007FE3031214E9C2E3031214E9DCE3031248
:1026930014E923E4031214E945E4031214E9EFE413
:1026A300031214E9E7E5031214E941E6031214E9FE
:1026B30092E6031214E92AE8031214E9A2EA0312C8
:1026C30014E920EB031214E94DEB031214E9C0EBF8
:1026D300031214E9E3EB031214E95DEC031214E9AA
:1026E30028ED031214E965ED031214E9C7ED031293
:1026F30014E988EE031214E98BEE031214E995EE44
:10270300031214E99FEE031214E9B2EE031214E963
:1027130024EF031214E94DEF031214E960EF0312DF
:1027230014E98CEF031214E9B3EF031214E9D7EFA2
:10273300031214E912F0031214E984F0031214E9EA
:10274300ACF0031214E9EDF0031214E922F10312C1
:1027530014E942F1031214E97FF1031214E9B6F10B
:10276300031214E9B6F2031214E9E9F3031214E9AC
:10277300FFF3031214E96CD7071214E984D7071285
:1027830014E9F9FF011214E951F7041214E9A0F74F
:10279300041214E940F9041214E9FBFA041214E9CF
:1027A3003DFB041214E926FC041214E930FD041263
:1027B30014E952FD041214E99CFD041214E91DFEF0
:1027C300041214E92ED8021214E951D8021214E9A2
:1027D30044D9021214E98DD9021214E921AC07126B
:1027E30014E943DA021214E98FDA021214E905DB61
:1027F300021214E991DB021214E906DC021214E955
:1028030049DC021214E929E0021214E978E2021207
:1028130014E9ABE2021214E922E3021214E953E6CB
:10282300021214E9C8E6021214E953E8021214E989
:1028330060E9021214E976EA021214E9ECEA0212E0
:1028430014E9B3EB021214E91CEC021214E91FECB5
:10285300021214E9FCEC021214E938EE021214E934
:10286300F3EF021214E99FF1021214E991F202123A
:1028730014E921F3021214E986BA071214E997F551
:10288300021214E9EEF5021214E98BF6021214E9AE
:10289300DAE1041214E97AE2041214E9E4E204121C
:1028A30014E98BE3041214E9EAE3041214E996E44D
:1028B300041214E93FE7041214E965E8041214E969
:1028C300E9E8041214E9C6EA041214E96BEB0412F2
:1028D30014E90EEC041214E96DEC041214E926ED6C
:1028E300041214E9A5EE041214E962F0041214E9C7
:1028F300E3F1041214E93DF3041214E94DF4041254
:1029030014E9F3F4041214E912F6041214E9B5AD50
:10291300041214E92DAE041214E975AE041214E97D
:10292300B9AE041214E902AF041214E94CAF041255
:1029330014E981AF041214E9FFAF041214E959B08A
:10294300041214E9B2B1041214E931B2041214E905
:1029530048B3041214E96AB3041214E976B40412F6
:1029630014E987B4041214E99FB4041214E9BFB53F
:10297300041214E9DCB5041214E9AFB6041214E925
:10298300D3B6041214E9EAB6041214E90BB704121D
:1029930014E92DB7041214E91FB8041214E977B827
:1029A300041214E9EDB9041214E94BBA041214E940
:1029B3006ABA041214E99CBB041214E919BC041288
:1029C30014E986BC041214E9C6BC041214E928BD38
:1029D300041214E9D8BD041214E9AABF041214E9BD
:1029E30095C0041214E98FC1041214E995C20412AC
:1029F30014E9B1C3041214E9BFC3041214E998C45F
:102A0300041214E938C5041214E97CC5041214E94C
:102A130091C5041214E9A2C6041214E945C70412AD
:102A230014E99DC7041214E960AD071214E999AEC5
:102A3300071214E956AF071214E9BAAF071214E9E3
:102A43004E95071214E96C95071214E9B095071215
:102A530014E9D695071214E9FC95071214E91496A4
:102A6300071214E92C96071214E94496071214E985
:102A7300A796071214E9E996071214E90B980712AF
:102A830014E91498071214E91D98071214E92698FB
:102A9300071214E93098071214E95198071214E940
:102AA300A27B001214E9827F001214E9907F0012C6
:102AB30014E9957F001214E95FBC071214E90BD7E0
:102AC300071214E9C3FF031214E951FE041214E9B7
:102AD30018D9071214E90080021214E95780021270
:102AE30014E9C380021214E94F81021214E905822A
:102AF300021214E94D82021214E96682021214E9E9
:102B03008982021214E9AB82021214E9E9820212E9
:102B130014E93883021214E96383021214E9C183AE
:102B2300021214E96884021214E91085021214E9EE
:102B33008C85021214E95986021214E9A086021246
:102B430014E9EC86021214E97487021214E9AD87C2
:102B5300021214E90388021214E91F88021214E90D
:102B63004E88021214E95A8A021214E9888B02125F
:102B730014E9B48B021214E9E88B021214E9098CEC
:102B8300021214E9188C021214E9238C021214E9BC
:102B9300D28C021214E9428D021214E9CD8D021275
:102BA30014E9D58D021214E9428E021214E97E8EC5
:102BB300021214E9448F021214E91790021214E965
:102BC3006C90021214E90B91021214E9659102123E
:102BD30014E9AA91021214E94394021214E98695A6
:102BE300021214E97098021214E95499021214E9BA
:102BF300389A021214E9499A021214E9BB9A021292
:102C030014E9529B021214E9B79B021214E9A79C20
:102C1300021214E9CC9C021214E9EA9C021214E990
:102C2300069D021214E9799D021214E9889D02128D
:102C330014E9109E021214E90D9F021214E91A9F5F
:102C4300021214E9239F021214E905A1021214E9E6
:102C530027A2021214E937A2021214E965A3021291
:102C630014E9E4A3021214E9FFA4021214E93BA538
:102C7300021214E915A7021214E9D2AA021214E9E6
:102C8300E6AA021214E9F0AA021214E9FAAA02123D
:102C930014E904AB021214E91DAB021214E927ABC9
:102CA300021214E994AB021214E99FAB021214E965
:102CB300C7AB021214E9D2AB021214E937AC021209
:102CC30014E942AC021214E966AC021214E98AACAC
:102CD300021214E9FCAC021214E945AD021214E924
:102CE30061AD021214E9D2AD021214E91EAE021252
:102CF30014E967AE021214E9A5AE021214E926AF75
:102D0300021214E9CDAF021214E99CB1021214E9C4
:102D130001B2021214E92FB3021214E955B30212DD
:102D230014E99DB4021214E9D7B7021214E9D5B914
:102D3300021214E9A0BB021214E939BC021214E90D
:102D43003ABE021214E9EFBE021214E928BF0212BE
:102D530014E98EBF021214E998BF021214E9C1C12B
:102D6300021214E900C3021214E957C3021214E950
:102D730002C4021214E9B2C5021214E9FFC6021218
:102D830014E91FC7021214E974C7021214E975C8C3
:102D9300021214E99DC8021214E9FCC8021214E9D4
:102DA300F4C9021214E96BCA021214E97ECB0212AF
:102DB30014E9ECCB021214E9EBCC021214E945CF6F
:102DC300021214E96ECF021214E9D4D0021214E9EC
:102DD30056D2021214E9ADD2021214E95BD30212E5
:102DE30014E900D4021214E959D4021214E917D5D4
:102DF300021214E9A9D5021214E908D6021214E941
:102E03004AD6021214E97BD6021214E9D2D702126F
:102E130014E90080031214E93280031214E96B8071
:102E2300031214E92982031214E9FF82031214E93D
:102E33005E83031214E97484031214E9C084031239
:102E430014E94E87031214E9288A031214E96F8BDD
:102E5300031214E9078C031214E9138C031214E907
:102E63005C8C031214E99E8D031214E9948E0312F1
:102E730014E9BE8E031214E9148F031214E96D8F43
:102E8300031214E9E08F031214E91692031214E9F2
:102E93009893031214E98394031214E9CD95031252
:102EA30014E90598031214E9029B031214E9119B18
:102EB300031214E9A59B031214E9509C031214E9AD
:102EC300939C031214E9DC9C031214E92C9D031256
:102ED30014E9909D031214E9029E031214E91E9E45
:102EE300031214E94D9E031214E98C9E031214E994
:102EF300879F031214E936A0031214E9B3A2031245
:102F030014E9E5A3031214E9BDA4031214E93FA5D0
:102F1300031214E974A9031214E9A3A9031214E90F
:102F2300FEA9031214E931AA031214E9A9AA031290
:102F330014E9DCAA031214E93DAB031214E98DABC7
:102F4300031214E95AAC031214E913AD031214E982
:102F5300D7AD031214E951B0031214E9B3B103124C
:102F630014E904B3031214E928B4031214E92BB4CB
:102F7300031214E95AB4031214E952B6031214E902
:102F830011B7031214E940B7031214E95EB8031230
:102F930014E926B9031214E9E4BA031214E916BBBF
:102FA300031214E958BB031214E957BC031214E9C2
:102FB300CABC031214E9F3BE031214E952BF03128D
:102FC30014E9A6BF031214E9D5C1031214E9B8C268
:102FD300031214E974C3031214E988C3031214E936
:102FE3009CC3031214E9C9C3031214E9F9C30312FE
:102FF30014E9B4C5031214E9C6C6031214E91BC7C6
:10300300031214E964C7031214E98BC7031214E90A
:1030130053C8031214E9F9C8031214E97FCA03124F
:1030230014E9C6CA031214E938CB031214E98DCC90
:10303300031214E936CD031214E96ACD031214E91D
:1030430082CD031214E925CE031214E9A1D0031291
:1030530014E949D2031214E967D2031214E985D2A1
:10306300031214E951D3031214E99FD6031214E98E
:103073003485011214E96C85011214E96C8A01127A
:1030830014E9B28A011214E9E88B011214E94D8C98
:10309300011214E9C28D011214E9CC90011214E952
:1030A300F591011214E9089C011214E9989C01128C
:1030B30014E9829F011214E98FA0011214E9F2A00E
:1030C300011214E93AA2011214E9A8A4011214E9A5
:1030D3003AA6011214E9C7A6011214E9E6A70112E0
:1030E30014E973A8011214E97DA8011214E9A5A833
:1030F300011214E945A9011214E930AA011214E9D5
:10310300FDAA011214E91AAB011214E943AB01122F
:1031130014E970AB011214E9B7AD011214E986AEDC
:10312300011214E9C5AE011214E947AF011214E903
:10313300E8AF011214E91AB0011214E961B00112E7
:1031430014E994B0011214E9D8B0011214E927B1BB
:10315300011214E92CB1011214E988B1011214E926
:10316300CCB1011214E9A6B2011214E90BB3011296
:1031730014E971B3011214E9ECB3011214E954B761
:10318300011214E957B8011214E9D5B9011214E96F
:10319300EBBC011214E98DBD011214E9D6BF011273
:1031A30014E991C0011214E9D0C0011214E9A8C2B4
:1031B300011214E9C5C2011214E9CEC2011214E9C5
:1031C300D7C2011214E9E2C2011214E901C30112C8
:1031D30014E9A5C4011214E902C5011214E90CC5CE
:1031E300011214E916C5011214E975C5011214E997
:1031F300BFC5011214E9C0C6011214E917C70112B1
:1032030014E928C8011214E971C8011214E92BC981
:10321300011214E942CA011214E917CB011214E98D
:103223005ECC011214E962CD011214E95BCE0112E6
:1032330014E973CE011214E9AACE011214E9B4CE33
:10324300011214E9BECE011214E9C9CE011214E928
:10325300E7CE011214E92FCF011214E98DCF011229
:1032630014E9B4CF011214E9C6CF011214E97BD0DB
:10327300011214E9B4D0011214E9D6D1011214E9F0
:1032830029D2011214E90FD3011214E936D3011222
:1032930014E9A6D3011214E922D4011214E97ED54C
:1032A300011214E9A5D6011214E967D7011214E932
:1032B30035D8011214E9F3D8011214E9DBD901124C
:1032C30014E985DA011214E9EDDA011214E9A2DB3B
:1032D300011214E9FEDB011214E956DC011214E9B0
:1032E3001CDD011214E93FDD011214E9FADD0112BC
:1032F30014E91CDE011214E97DDE011214E9ADE0CC
:10330300011214E9A6E1011214E952E2011214E9CF
:1033130073E4011214E9BCE4011214E907E5011294
:1033230014E963E5011214E9C1E5011214E9E5E5C5
:10333300011214E909E6011214E93EE6011214E947
:1033430066E6011214E9ABE6011214E9FFE6011285
:1033530014E958E7011214E952E8011214E9F0E9FB
:10336300011214E935EA011214E95EEA011214E9C3
:10337300E7EA011214E95AEB011214E968EB0112AE
:1033830014E98CEB011214E9E2EB011214E9FDEBF1
:10339300011214E9B8EC011214E9E4EC011214E986
:1033A30027ED011214E98AED011214E998EF0112D5
:1033B30014E9C4EF011214E97FF0011214E963F177
:1033C300011214E9F7F1011214E9A9D3051214E962
:1033D300E1D3051214E902D4051214E944D4051209
:1033E30014E9A8D4051214E9B2D4051214E9C2D41D
:1033F300051214E9F9D4051214E9A2D8051214E947
:103403006ADA051214E94EDC051214E9F0DC051240
:1034130014E97ADD051214E9E941001214E9924234
:10342300001214E97143001214E97D44001214E9F7
:103433009D44001214E9BF45001214E96F470012BE
:1034430014E9DC47001214E9AD48001214E9B3494A
:10345300001214E92B4A001214E9664A001214E917
:10346300BF4A001214E9FA4A001214E9434B00124E
:1034730014E9D74B001214E96D4C001214E9424DC4
:10348300001214E9154E001214E9A34E001214E9B8
:10349300C94E001214E9F64E001214E9274F001228
:1034A30014E9F44F001214E90450001214E95750C0
:1034B300001214E96450001214E97150001214E967
:1034C3007A50001214E9DE50001214E93C51001244
:1034D30014E98751001214E9A251001214E9C951E9
:1034E300001214E9E651001214E9F251001214E932
:1034F3008353001214E99C53001214E91854001268
:1035030014E92B54001214E93B54001214E9DF545C
:10351300001214E94B56001214E95E57001214E925
:10352300FE57001214E90858001214E987580012D4
:1035330014E99858001214E9D758001214E90559F0
:10354300001214E9D259001214E9295A001214E99D
:10355300625A001214E9B85A001214E9D65A00123A
:1035630014E9245B001214E9EF5B001214E93D5CDB
:10357300001214E98A5C001214E90D5D001214E9CB
:10358300375D001214E96D5D001214E97C5D0012D1
:1035930014E9DB5D001214E9535E001214E9945E32
:1035A300001214E9E45E001214E90F5F001214E93B
:1035B300295F001214E9435F001214E91860001236
:1035C30014E92260001214E95D60001214E96D60D1
:1035D300001214E9BE60001214E9D260001214E96B
:1035E300F461001214E90962001214E99C620012EA
:1035F30014E91063001214E9B563001214E9C063FF
:10360300001214E92365001214E93F65001214E95E
:103613008B65001214E9F965001214E92B66001298
:1036230014E94566001214E9A566001214E944671B
:10363300001214E98F67001214E9E269001214E919
:103643007A6A001214E9F16A001214E94E6D00124D
:1036530014E9666D001214E9696D001214E9756DC1
:10366300001214E9896D001214E9916D001214E936
:10367300C86D001214E9BC6E001214E9466F001203
:1036830014E9C86F001214E94870001214E91F719D
:10369300001214E94171001214E9DA71001214E9FD
:1036A3003772001214E93A72001214E9A972001277
:1036B30014E9F573001214E90875001214E99375FF
:1036C300001214E9A676001214E96D77001214E9CA
:1036D3009E77001214E9C477001214E9CD77001223
:1036E30014E9FC77001214E9AC78001214E95C7950
:1036F300001214E9CF79001214E9727A001214E966
:10370300E57A001214E9247B001214E96D7B0012A0
:1037130014E905AC071214E9FAAA071214E970AA0E
:10372300071214E9ADFE031214E922FD031214E992
:1037330011FC031214E959FB031214E9C6F903122D
:1037430014E9E4F6031214E910F6031214E910F570
:10375300031214E931F4031214E92ABA071214E923
:10376300EFB9071214E9AED8071214E993D8071278
:1037730014E969D3071214E903D3071214E9CBFF41
:10378300051214E95182071214E97781071214E92B
:10379300FD80071214E90080071214E96EFE01127E
:1037A30014E994FD011214E9CAFC011214E939FB6E
:1037B300011214E902FB011214E9D4FA011214E90B
:1037C30088FA011214E9F1F9011214E961F90112FD
:1037D30014E93BF9011214E9F0F8011214E9BAF8FB
:1037E300011214E93DF8011214E9D8F7011214E9A2
:1037F30087F7011214E9AFF6011214E91FF601125B
:1038030014E9D3F5011214E94EF5011214E909F58F
:10381300011214E9EDF4011214E980D2071214E93C
:1038230095F3011214E9ADD5071214E947D5071230
:1038330014E932D5071214E922D5071214E96AD91B
:10384300071214E9FC7F001214E968D2071214E985
:103853005DD2071214E967F3011214E934F301127C
:1038630014E9B8F2011214E92BED061214E94ED251
:10387300071214E990EB061214E99EEA061214E902
:10388300CCE9061214E95ED3051214E989D10712B3
:1038930014E905D3051214E975F4021214E9D0D220
:1038A300051214E99BD2051214E967D2051214E933
:1038B300FAD1051214E9E2D1051214E9BDD10512BA
:1038C30014E98ECE051214E961CC051214E961CA1C
:1038D300051214E9E7C9051214E998C9051214E998
:1038E30052C9051214E9F4C8051214E9A387061294
:1038F30014E9F686061214E90786061214E978D14C
:10390300071214E96B84061214E92E82061214E9D5
:103913009880061214E90080061214E9E5D9020022
:10392300000080FBE4738F000100D91B87000100B6
:10393300A71E350004006B1E250002006F1E260023
:103943000200711E27000200731E280001007D1E65
:10395300290001007E1E840004007F1E86000100F2
:10396300831E2A000100841E2B000100851E2C00EB
:103973000100891E2D000800C11B2E0001008A1EB4
:103983002F0001008B1E300001008C1E310001004E
:103993008D1E32000100C91B33000100CA1B340015
:1039A30001008E1E36000100CB1B380001008F1E64
:1039B30039000100881E83000200A51E6300010078
:1039C300D61B64000100861E65000100871E6D0082
:1039D3000100D71B71000800B91B66000100A41E7B
:1039E30043000100951E44000200961E450001009D
:1039F300981E46000200991E47000800CE1B48008F
:103A030001009B1E4B0001009C1E04000100A81E28
:103A1300A1000100AB1E37000100AA1E88000100AF
:103A2300A91E3C000100CC1B3D000100901E490073
:103A330002009D1E67000100D81B4D0002009F1E5F
:103A43004E000100A11E4F000200A21E3E00010015
:103A5300941E51000100911E52000100921E53005A
:103A63000100931E54000100CD1B00000000000064
:103A7300000000000100EC380200EC380300EC38D1
:103A83000400EC380500A01E0600000007002437E0
:103A930008003C22000000000A0000000B00302256
:103AA3000C0284370D0000000E00EC380F00EC38D8
:103AB300000000000000000000000000130050237D
:103AC300000000001500CC1C1600CC1C170150236D
:103AD300180000001900A2221A00A2221B003223A0
:103AE3001C01C6191D01C6191E00CC221F0168380E
:103AF300200064242100DC272200201D23008437BA
:103B0300000000000000000026010C222700000036
:103B13002801FA21290010242A0054192B023022EB
:103B23002C0046242D0246242E0000002F00000006
:103B33003000EA22000000003200000033000000E1
:103B4300340000003500000036000000370000009C
:103B5300380000003901C6193A0000003B0000009C
:103B63000000000020012F850000010020012F85A7
:103B7300000002002001328500000300200130858F
:103B83000000040042016D800000050042017E80B8
:103B9300000006004201A080000007002001AB8066
:103BA3000000100042018F80000011002001640812
:103BB300000000404201A080000000804201D28149
:103BC3000600000010110000070000003033000061
:103BD30007001000303300000700014020330000CD
:103BE30007000240203300000800000020330000DB
:103BF3000C005500393300000C001C004233000058
:103C0300120055002101000014000E0042220000A2
:103C13000004000021040000020400002904000045
:103C23000304000029040000050400002904000027
:103C33000001363601010001020100010301000108
:103C43000401060605020000070100340801000F05
:103C5300090401010D0100FF0E0800001702000016
:103C6300190100FF1A0100011B0100FE1C010008DD
:103C73001D0200001F0100012001000121020000BC
:103C83002301000F24020000260100012701000880
:103C9300280200FF2A0100072B0102402C0100002B
:103CA3002D0100012E0100012F0100FF30010B1D2A
:103CB300310800003A0100083B01000F3C010001FC
:103CC3003D0100FF3E0400004204000046040000E2
:103CD3004A0400004E040000520400005604000091
:103CE3005A0400006A007800F823FE2304246C00C1
:103CF300F000A423AA23B0236B00F000BC23C2234B
:103D030004246600F000BC23C223042467001400CB
:103D1300CE23D423DA2369001400E023EC23E62323
:103D2300EE22E80368238623802364000100000059
:103D330000009E2363000100000000009E23620038
:103D43000100000000009E2361000100000000004C
:103D53009E2370000100000000009E2301037103F5
:103D6300010301030103010301032203020301030E
:103D73001003000300030003000300030003000318
:103D83004203000324030603000300030403120396
:103D93002503230325032303040304030003000370
:103DA300000344030003000323030003650321000E
:103DB300350381030003050300030003000300032D
:103DC3002503230303047104020460041104700433
:103DD3000204020401040204100461040004140434
:103DE30063047304720462044304000413040604AA
:103DF300000400040404120400040004000400048A
:103E0300510464000004000400044404000400049A
:103E130000040004650400043504810464000504FF
:103E230000048304000403027102300160021102E2
:103E330070020102020202028002100261023A00D1
:103E43004100630273027202620243020002130220
:103E53003800000200020402120200020002000203
:103E6300000204020402370037003C02440200024D
:103E730039000002000265020002350281020002DD
:103E830005028202830200020101710101010101A5
:103E930011010101310101010101800110016101E1
:103EA3003B001400630173017201620143010001CD
:103EB300130106013D013500040112010001000157
:103EC3000001000104010401330133013C014401F9
:103ED3003201360000010001650100013500810156
:103EE300000105018201830100010300710030011B
:103EF30060001100700031022003500480001000A4
:103F0300610000001400630073007200620043004C
:103F1300000013000600000000000400120000006F
:103F230000000000000004000400370037003C02DA
:103F330044000000000000000000650000003500A0
:103F4300810000000500000083000000360001002E
:103F5300060000000F000000000000000000000049
:103F6300000003FFFF00000403FFFF0000FFFF0F3B
:103F7300F4010005C4040320000100000B0000004D
:103F8300000000000003010F00000000000000001B
:103F9300000000000000000000000000000000001E
:103FA300000000000000000000006C25A825722519
:103FB3009A247825AE257825BA257E259A24782556
:103FC300AE2584259A248A259A2490259A24962519
:103FD3009A249C259A24A2259A240000000000001C
:103FE30000000000000000000000000000000000CE
:103FF30000000000000000000000000000000000BE
:104003000000000000000000AE2813005A281F0023
:1040130060281F8066280100AE280200E227030003
:10402300E8270400EE270500F427060000283000E7
:104033001E283100182832002A2833003028350082
:10404300362834003C283600422811004E2814003C
:10405300542815001228FFFF00000A000000020088
:104063000000040000000800000010000000200011
:10407300000040000000800000000001000000027A
:1040830000000004000000080000001000000020F1
:1040930000000040000001AC3006D63008D0300BE1
:1040A300EE3010C42D02B23005C43007B8300C9482
:1040B300300DA03064C02BFF000007ECFDFDFDECCC
:1040C300DCDCCCBCACAC9C9C8C7C7C6C6C5C5C5CAD
:1040D3004C4C3C3C2C2C1C1C00160F00000B150BED
:1040E300020002220F3300000E5A696742656541E0
:1040F3006C6C69616E6365303901030507090B0D4B
:104103000F00020406080A0C0D140AE5D5C5B5A56F
:10411300A5958585756500011916181616182303CC
:1041230000303017181921301B1D1F30303016187E
:104133001920231A1C1E3000393D3F373C3C362CD6
:10414300442D00034A49434E181A2505020C0E025A
:104153000B040B0A0708000F020402010101010905
:104163000200BE040AE8030000000000000E00FA8B
:10417300060C417F00E803BD401E0005081004043F
:1041830000100C2809080903010C050308151A037C
:1041930000FF0AFF0C04E004124A19A2E792AF22BF
:1041A300E4F0A3F0A3F022A31241A3A3F0227F0C17
:1041B300021216E0F508E4F509F50AF50B2274017D
:1041C300F090051CE0640F2274091215197F040294
:1041D3001216A3A3E024F5C394132290053C126D99
:1041E300097A147B0022C082C083901CF57478F096
:1041F300A37434F0A3748AF0A37434F0901CF9749C
:1042030060F0A37434F0A3745AF0A37434F0A3746D
:1042130096F0A37434F0A3749CF0A37434F0A374E5
:1042230090F0A37434F0A37448F0A37434F0901D99
:1042330005746CF0A37434F0A37472F0A37434F0B7
:10424300A37466F0A37434F0A374A2F0A37434F0DF
:10425300901D161262966006126500122104901DCD
:10426300131259C27408F0A3E4F0A3F0901DB6F042
:10427300901D18F07C0BFDF97A197B1D1220507CE0
:104283000B7D0079007A247B1D1220500259CB74D8
:10429300F7120E6274F71215FCEAFEEBFF1257E9F0
:1042A300740512435F7403F0EE2402FAE43F1243F1
:1042B30039242DFCE43FFD8C828D83124477124315
:1042C300486008124BC174FFF0A3F0EE242BE43FC7
:1042D3001C1CFD8C828D83A3E0C0E08A828B831239
:1042E30057FAD0E012434888828983125FF224038D
:1042F300126AD312230274081218937403F0900500
:104303003112131D74021215DE7903EEFAEFFB125C
:1043130036347402121519E9F5087007EEFAEFFB4B
:1043230012351AA9087409024BD1F582E43FF583CB
:1043330012773E125FE7FB8A828B83124357E8F0C2
:10434300A3E9F0EE22126D27124357E8F0A3E91216
:1043530072A3E0221244428A828B8322F0A3E4F008
:1043630012436722EE240DF582E43FF5832274F1B4
:10437300120E62EAFEEBFF8C088D09890A12444C87
:104383008A828B83124442740F121893124465E895
:1043930024FF18E934FFF988828983E50A12445718
:1043A3009005361244549005351244547411121872
:1043B30093124465EE2404FCE43FFD880B8A828B50
:1043C30083E0F50C8C828D83E0250CC3950B126D75
:1043D30023E8F0A3E9125756A3A3A3A3A3A3A3A37C
:1043E300E064037008125AB2F0A3E4800312475842
:1043F3001243627409F0750C19750D1D750E007862
:104403000C12150212474C1220447403121519752D
:104413000CFF750DFF780C121506AC08AD09790376
:10442300EEFAEFFB1236347402121519E9F508702F
:1044330007EEFAEFFB12351AA9087F07021216E0FE
:1044430024FFF8A3E034FFF922EE2402FAE43FFB51
:104453002212447712445B22F0E824FF18E934FF68
:10446300F922E0F50CA312447712445B8882898316
:10447300E50CF022E08882898322C082C083901DEC
:1044830035E0C39408400474078001E08A828B837B
:10449300F033333354F8F90259CB74F0120E62EA55
:1044A300FEEBFF890C8C0E8D0F750A00A2AFE4336F
:1044B300F50BC2AF901D2F803F1245855037124533
:1044C3009664037030EE24F9FEEF34FFFF85088213
:1044D300850983A3A3E02405FCA3E03400FDEEFAE1
:1044E300EFFB122302EE24FF1EEF34FFFF741025AF
:1044F3000AF50A150C12572312773AE50C6006E504
:1045030008450970B4E50BA2E092AFA2AFE433F51E
:104513000BC2AF901D2F802C2402FAE43509FB8ACD
:10452300828B83126D122406F582E438F5831245DB
:10453300A38A828B8312458BA3A31245A3050A1575
:104543000C1257231257386022124596640270F1F9
:10455300124585E50840C1124886A2E550E3850E61
:1045630082850F837401F0E50C70D6E50BA2E0920F
:10457300AF8E828F83E50AF0EE24FFFAEF34FFFB60
:104583008035124891A2E62212458F22127107A3A9
:10459300A3A32285088285098312710112673B2236
:1045A300E08E828F83F0EE24FF1EEF34FFFF221292
:1045B300370074041215197F0802121674EC120ED8
:1045C3006274F51215FC89138A128B0F8518828584
:1045D3001983E4F0041215D612342AE9F890051B66
:1045E300E0292434F508FA7B001220628A0A8B0B37
:1045F300AE0AAF0BEE4F7003024740EE2402F50AFA
:10460300E43FF50BA808EE28F8E43FF9850A828514
:104613000B831243412404F510E43FF51185108206
:10462300F583E4F090051BE0FCF8C3E498F895E00B
:10463300F9850A82850B83E028F508A3E039F5099B
:104643009005191269CB750E00780C1215027D00C6
:10465300AA08AB091220447403121519AC18AD193A
:104663007401121893E0F9E50824FFFAE50934FF11
:10467300FB1234308A828B83E4F0EA24FFF508EBE3
:1046830034FFF509E50FC454F0F9901DB7E0C433C6
:104693003354C0F8900515E0A2E0E43313134849FE
:1046A300440F124760E512C454F045138508828510
:1046B3000983F0A808850A82850B83E0FA851082B6
:1046C300851183E02AC398F0850A82850B83E8F07D
:1046D300A3E509F0124758124362E4F0740A121872
:1046E30093E4F075082475091DF50A78081215027C
:1046F30012474C1220447403121519851882851928
:1047030083E06009EE240E12587F4408F012361C31
:10471300E9F9E4F508F50978081215067404121589
:10472300DEEEFAEFFB1236347402121519E9700645
:10473300EEFAEFFB800BEEFAEFFB1220687A007BB8
:1047430000740B1215190241B17C0B7D00EE241885
:10475300FAE43FFB221257EDE4F0A322E08508823E
:1047630085098312476A22F012699F2274F3120E9D
:10477300628A0A8B0BA2AFE433F50CC2AF75080053
:10478300750900901D2F802C1249AD5024850A8293
:10479300850B83A3A3127B678E828F83A3A31265EA
:1047A30003123622E9600A1247D3C2E6F08E088F5D
:1047B300091249A2124C5B70CFE508450960061245
:1047C300488DD2E6F0E50CA2E092AF7F0502121607
:1047D3001247D7221269B8E02274F0120E62EAFE81
:1047E300EBFF8C0C8D0D750E00A2AFE433F50FC2F9
:1047F300AF750800750900901D2F8020850A088574
:104803000B0912488DD2E4F0E508124886D2E7F08E
:10481300E50A24FBF582E50B34FFF583E0F50AA3F3
:10482300E0F50BE50A450B6043E50A12560E350B1E
:10483300F583E0A2E750D9850A82850B83A3A312EF
:10484300131DAC0CAD0DEEFAEFFB123628740212F9
:104853001519E960BBE508450960A1E508240D12B7
:104863004899640170061248A2D2E4F0E50FA2E071
:1048730092AFE50845096006123514750E01A90EBD
:104883000245BA12563812489C2212489122E50872
:10489300241112489922F582E43509F583E0228533
:1048A3000882850983127101E02274F2120E627488
:1048B300FE1215FC750C00750D0085188285198391
:1048C300E4F0A3F0A2AF33F50AC2AF901D2FE0FED0
:1048D300A3E0FF8035EE24FBF582EF34FF12773837
:1048E300780C121506EEFCEFFD7A2F7B1D12209833
:1048F3007402121519EEFCEFFDAA18AB19122086EB
:10490300AE08AF09901D35E014F0EE4F6027124951
:10491300AD501DEE240BF8E43FF988828983E0242F
:10492300FFF0A3E034FFF08882898312629660A5CA
:1049330012499E8099E50AA2E092AF901D35E0608E
:104943003190051CE0640F6006901DB6E070237A79
:104953000D7B1D12370C9085151213197A0D7B1DD3
:104963001237007404121519800874F0125BE912EF
:104973003508AA18AB1912208C8A0A8B0BAE0AAF22
:104983000BEE4F601312343C1247D3A2E28E828F98
:1049930083A350D674E980D4024C638E0C8F0DEE42
:1049A30024FBF582EF34FFF583221247D7A2E722D7
:1049B30074F7120E62EAFEEBFF12343C1257F71241
:1049C3003927E96401900538700AE02401F8A3E06F
:1049D30034008004E0F8A3E0F9125E451261EE9022
:1049E3001D35E0702190051CE0640F70197A0D7B72
:1049F3001D12370C9085151213197A0D7B1D123772
:104A0300007404121519A9A8C2AF901D35E0041251
:104A13004A19A2E7800DF0E9A2E7E433F8E922E5B9
:104A230008A2E092AF025C8574F7120E62EAFEEB15
:104A3300FF124A60F012343CEEFCEFFD7A2F7B1D2F
:104A4300122092A9A8C2AF901D3512419990051C5E
:104A5300E0640F700579081235D4025C851247D7DC
:104A6300C2E42274F7120E6274EA1215FCEAFEEB3A
:104A7300FF900515E060408518828519837401F065
:104A8300121893E4124B38121893AA82AB831223A1
:104A9300028E828F831248A8C0E0740A121893D042
:104AA300E0126D38740B121893AA82AB8312364C42
:104AB300AA18AB19122AA07416024BD174F7120E5E
:104AC30062EAFEEBFF12341EE9F974DC69601E74BE
:104AD300DD69601974E469601474F369600F74DE4E
:104AE30069600A74DF69600574DB697007EEFAEFC9
:104AF300FB1235DA025C8574F7120E6274EB121541
:104B0300FCEAFEEBFF8518828519837406124B3885
:104B1300121893AA82AB83122302126D3D740A12F8
:104B23001893AA82AB8312364CAA18AB19122AA087
:104B33007415024BD1F0EE2413FCE43FFD74022202
:104B430074F7120E6274F71215FCEAFEEBFFEE2403
:104B53002D12587F6065125410AA18AB1912230244
:104B630074081218937403F090053112131D124B3D
:104B7300C112131D900544E0F974041215DEEEFA18
:104B8300EFFB1234247404121519E9F974DC69601B
:104B93002374DD69601E74E469601974F369601439
:104BA30074DE69600F74DF69600A74E86960057414
:104BB300DB697007EEFAEFFB1235DA024328EE12D7
:104BC3004BC622242BF582E43FF58322740312158E
:104BD30019025C8574F2120E628A088B09750C0047
:104BE300750D00750AE7A2AFE433F50BC2AF901D54
:104BF3002F800312499E124C5B60351249AD50F36E
:104C030012587C640170ECEE242FF582E43F124EBF
:104C13000AE06870DE780C121506EEFCEFFD7A2FC1
:104C23007B1D1220987402121519901D35E014F0A3
:104C3300E50BA2E092AFEE4F6013EEFAEFFB1234F6
:104C43003C79F0EEFAEFFB1235DA750A00A90AAAED
:104C530008AB091235DA800DE0FEA3E0FFEE4F2228
:104C630074021215197F0602121674F4120E62747E
:104C7300F71215FCEAFEEBFF8E828F83A3E064F349
:104C83007003024D178E828F83A3E064DF700302EB
:104C93004D178E828F83A3E064E860788E828F83C2
:104CA300A3E064DB606E12347EE9F508705EEE24E7
:104CB3000E12587F6056124D211234C6EA4B604CD7
:104CC3007408121893124D2B12131D7508FF7509E2
:104CD300FF78081215068E828F83A3A3A3A3A3A331
:104CE300A3A3E0F974041215DE123424740412151C
:104CF30019E9F50874F36508601274DF6508600C40
:104D030074E86508600674DB6508700F8E828F8314
:104D1300A3E508F0EEFAEFFB12348A0241CBEE244E
:104D23000FFAE43FFB790922740212750074FFF055
:104D3300A3124D3822124D3C22125FFBA3A322740F
:104D4300F5120E628A088B097E008A828B83A3A3E5
:104D5300A3A3A3A31241D540027EE88A828B83A337
:104D6300A3A3A3A3A3A3A3A3A3E0C3941040047E7C
:104D7300E880138A828B83A3A3A3A3A3A3A3A3A3E0
:104D8300A3E0640F600A901D93E0540870027EE86C
:104D9300EA240BF582E43509124E0AA3A3A3A3A3C5
:104DA300A3A3A3E0C398500CEA240B124899640F01
:104DB30060027EE8900535E0F47003A3E0F470022E
:104DC3007EEC7A237B001220FE901D161265139051
:104DD3001D161262966029850882850983A3A3A9FB
:104DE30082AA8389088A09750A0078081215027C49
:104DF300237D0012650012204474031215198002EA
:104E03007E1AEEF90276A1F583E0F88A828B83A3FA
:104E1300A32274F5120E62EAFEEBFF8E828F83A348
:104E2300A3A3A3A3A3A3A3E090051C1273E390057C
:104E3300371273C99005171273E8901DB7F0F91272
:104E43001B34901DB7E06018EE2404FAE43FFB79AD
:104E530050121B1CEE2406FAE43FFB79E1121B1CE3
:104E6300901DB61241C16004740180027400901D4C
:104E7300181273CF1215027C0B7D007A197B1D1259
:104E830020447403121519EE2418F508E43FF509BC
:104E930078081215027C0B7D007A247B1D0276991B
:104EA30074F7120E62EAFEEBFF8E828F83A3E0702B
:104EB300061265001234848E828F83742C125BE990
:104EC3001235E6025C8574F7120E62EAFEEBFF9080
:104ED3001D16126296600D126500901D16E4F0A374
:104EE300F01221048E828F837408125BE9122AA0C8
:104EF300025C8574F6120E62901DB6E06013901D7D
:104F030018E0700D124F17123436EA4B6003123556
:104F13001A027043900517E0FB900537E0FA9005FD
:104F23001CE0F92274F4120E6274E71215FCEAFE17
:104F3300EBFF750B018E828F83A3A3A3A3A3A3A36C
:104F4300E0A2E25068EE242BF582E43F127B651267
:104F53004FE5123442E97055908359E064017005BE
:104F6300750B008048124FED1215027C0B7D007407
:104F7300111215D6122044740312151912361CE9A6
:104F8300FA740E1215CE8808890978081215067569
:104F930008307509007808121506124BC112131D4B
:104FA300126CD9790112363A7406121519851882D2
:104FB3008519837410124B38121893AA82AB83128B
:104FC30022F6124BC1126D05740B1218931261EE87
:104FD300740D121893E50B125A5C122AA07419026D
:104FE30041CDEE2413FAE43FFB22EE24081273D7DB
:104FF30022C082C083901DB7E0600312368E02592F
:10500300CBC082C083901DAE74F5F0A3741CF0A3D3
:1050130074F9F0A3741CF0A37405F0A3741DF0904D
:105023001ECF74C7F0A3743DF0901D987418F0A3BD
:105033007434F0901D3A744EF0A37434F0901D3C18
:105043007454F0A37434F0901D93E044028001E49F
:10505300F00259CBC082C083EAFCEBFD7903026006
:1050630067C082C083EAFCEBFD7905026067C082FA
:10507300C08379080271D4C082C08374FE1215FC08
:10508300901D427402F0A37435F0901D4474FCF03B
:10509300A37434F0800D7A2F7B1D12208C125A5288
:1050A30012360A901D2F12629670EB901D31126218
:1050B30096600F7A317B1D12208C125A5212360AD7
:1050C30080E9901D2FE4F0A3F0901D351241A474E4
:1050D30002800274111215190259CB74F6120E6272
:1050E300E9FF743A29F582E43441F583E493FEFA47
:1050F3007B00122062EA4B6011EA2E1261E48A827D
:105103008B83A3A3A3A3E4F0802C7A027B00122059
:1051130062EA4B601D74242FF582E43441F583E485
:10512300938A828B83F0A3741AF0901D8EE0F91298
:10513300206E7A007B00027043E9FC740629F8EACA
:10514300A2E0501EE875F00A84E5F0F96014740AD1
:1051530028C399F8E9C394054004740A28F8740B2A
:1051630028F8ECC3941340047A1480027A06EA28E0
:1051730079002409F85001097A0A7B00120AE3E84E
:10518300F90214E6C082C083901D93E05402600AC2
:10519300122AA6E960047901800279000259CBC082
:1051A30082C083901D93E054026016901D35E07019
:1051B3000C126293600BE0C81257305004790180DF
:1051C3000279000259CBC082C083908356E0F890E5
:1051D3001D37E0C398500512206280047A007B00DB
:1051E3000259CBC082C08312360A79000259CB74AC
:1051F300F7120E6274FE1215FC851882851983EA74
:10520300F0A3EB125361A3A3A3A3A3E0600A14606A
:105213006024FE60690252E290051CE0640F60188E
:105223001235E0E97012851882851983126503909F
:105233001D3E1257FA123927900544E0C0E0851845
:1052430082851983125FC5D0E012536174141274FE
:10525300FC127B677A317B1D122086A8A8C2AF900F
:105263001D37E00412651979201235D47402024BFC
:10527300D1851882851983127109741580D0851818
:1052830082851983125344A3A3E060538518828552
:105293001983E02402F8A3E03400F9888289831299
:1052A300793AE0C0E0851882851983E0FCA3E0CC5D
:1052B3002406F582E43CF583D0E0126D45888289AB
:1052C3008312651385188285198312562C851882DB
:1052D300851983601312534960051253514043AA41
:1052E30018AB1912360A808412534960F2125351D3
:1052F300501C125740FA85188285198312534BF8B4
:10530300745A1261DF3441F583E4936A601485189B
:1053130082851983125349640870C4125740640884
:1053230070BD12574014125369240AC0E0851882D5
:105333008519831257FAD0E012536904025251E0DF
:10534300F8A312601222E0F8A3E01253702285182A
:1053530082851983126D16125371C3940A22125354
:105363007BF58388822212537B12537022C8240652
:10537300F582E438F583E022127500E0F8A3E02219
:10538300C082C083901D46126296600812710A1291
:105393003927800279000259CB74F7120E62EAFEB4
:1053A300EBFF1243677401F0EE2430F582E43FF51E
:1053B30083126A73124341243212587FC0E0EE24F1
:1053C30013F582E43FF583D0E0F0EE243312587FE7
:1053D300C0E0EE2414F582E43FF583D0E0F0EE2440
:1053E3002CF582E43FF58312131D125410EE242E84
:1053F30012587FF91236347402121519E9F5087040
:1054030007EEFAEFFB12351AA908025C85EE242396
:10541300FCE43FFD22C082C0831235E0E9600479D9
:1054230020800279010259CBC082C083EA12560E52
:105433001254CFD2E0025053C082C0831254C964C5
:105443000170111254D4400C8A828B83A3E0F912A9
:1054530035DA806FEA24101254CCA2E650128A8205
:105463008B83A3E0F9901D401257FA12392780531A
:105473001254C96401700D1254D450088A828B836C
:10548300743080368A828B83A3E0641B8A828B8389
:10549300700474228024A3E0700D1254C9F8742F91
:1054A3001261DF3441800B1254C9F874241261DF96
:1054B3003441F583E4938A828B83F0901D8EE0F967
:1054C30012206E0259CBEA240DF582E43BF583E00A
:1054D30022EA1256383BF583E0A2E32274F7120E58
:1054E30062E9FE1262937003025605EE6011741BAB
:1054F3006E7013E0C8125608640570030255D0128B
:1055030070F9E40255D474E96E7062125624700B7C
:10551300122AACE9600512563E606279EE121A98BF
:10552300901D38125621901D38603B125641901D34
:1055330038700B12562114F0121C600256051256D5
:105543002CC2E712574C1256086403700C126D0FED
:1055530012560E125376D2E2F079ED121A981256C1
:105563001412392780751270FC74E9806474E16E3B
:10557300703E122AACE9605512563E705090053EBB
:10558300E0C0E0126D0F2412F582E438F583D0E019
:10559300F090052DE0C0E0901D38125342125342A3
:1055A300D0E0F090052DE004F07901121C48805200
:1055B300741C6E7018901D38126503901D481257A5
:1055C300FA123927901D38E4F0A3F080351270F9F0
:1055D300EEF0901D38126503123508126D0F126C30
:1055E300E1E054806010900544E0F9121B589005E7
:1055F30043E0F9121B4C901D38E4F0A3F07910122C
:1056030035D4025C85240D125373222411F582E4F0
:1056130022901D38126507901D3C12710322E0F899
:10562300A3E0C8241212537322E0F8A3E0C8125671
:1056330038125376222410F582E422901D38126D1D
:1056430016126CE5E054042274F4120E62750A001B
:10565300750B00A2AFE433FFC2AF12629360030283
:1056630057081257F7123927E94410F8901D2F8075
:105673000985080A85090B1257231257387003024C
:10568300570812488D586870E8780A121506AC0856
:10569300AD097A2F7B1D1220987402121519901DE3
:1056A30038E508F0A3E50912574C125730405D90D6
:1056B3001D36E014F0EFA2E092AF901D38E0240E07
:1056C300F8A3E03400F9880889098882F583126514
:1056D30003901D38125746F91234CCE9901D33F06C
:1056E300125754E05480901D386026126D12241313
:1056F300125373F9121B58126D0F2414125373F9BA
:10570300121B4C8018EFA2E092AF8011901D3580E0
:10571300A112562CA2E1B3E433F9121C480241D082
:10572300E50824FBF582E50934FFF58322241112F1
:105733005373A2E72212773EE508450922851882B2
:1057430085198312458FA3E022F0901D38126D1640
:1057530022A3E4F08508828509832274F7120E627E
:10576300EAFEEBFF123604EE241012587FA2E34048
:105773000C12587C64017005908354800390835508
:10578300E0F9EEFCEFFD7A2F7B1D12209EE96046C7
:10579300EEFAEFFB901D421257FA123927EE240E50
:1057A30012587F54047020A8A8C2AF901D36E0049D
:1057B3001264F9FAE8A2E792AF1257E9A3E05401A1
:1057C3007021123514801CEEFAEFFB901D3A12572C
:1057D300FA123927800D8E828F83A374F1125BE94D
:1057E300123508025C851257ED22EE240EF582E491
:1057F3003FF58322901D4412710322C082C083129D
:1058030035140259CB74F7120E62EAFEEBFF7900EE
:10581300901D93E05402700CEE243012587F540410
:10582300600279E8901D93E05460700CEE2430120E
:10583300587F5402600279E88E828F83A3A3A3A3C7
:10584300E0F890835AE0C398500279E8EE242E12D0
:10585300587F700CEE242B12587F700479F5800B5F
:10586300E970051234F6E9F9E96007EEFAEFFB1285
:1058730035DA025C8534FFF509EE240DF582E43F49
:10588300F583E022C082C0838A828B83740DF01279
:105893002AA00259CBC082C0838A828B83E4F0A3FF
:1058A300F0EA24301254CC54049083547012E0F87C
:1058B300901D36E0C398401279F11235DA0259CBC4
:1058C300E0F8901D35E0C39850EE901D8EE0F9127C
:1058D300206E80E974F6120E62E9FE244CFAE43479
:1058E30000FB122062EA4B6012EE8A828B83A3A331
:1058F300A3A3F0EA244C1261E480047A007B000243
:105903007043C082C083901D4A7462F0A37435F063
:10591300A37492F0A37435F0A37468F0A37435F004
:10592300A3746EF0A37435F0A3748CF0A37435F0F4
:10593300A37480F0A37435F0A3747AF0A37435F0E4
:10594300A37498F0A37435F0A3749EF0A37435F098
:10595300A374A4F0A37435F0A374B0F0A37435F06A
:10596300A37474F0A37435F0A3745CF0A37435F0DE
:10597300A37456F0A37435F0901D667486F0A37477
:1059830035F0A374AAF0A37435F0A374C4F0A37420
:1059930036F0A374B6F0A37435F0A374BCF0A3740B
:1059A30035F0901D8AE4F0901D8DF0901D7612590C
:1059B300C27402F0901D7F1259C2740102505374D5
:1059C300D4F0A37435F0A322D083D0820214E674FA
:1059D300F5120E6274F11215FC8518828519837411
:1059E30002F07401121893E9F060047AFF7BFF74EC
:1059F3000212189312651375088275091D750A0042
:105A030078081215027C0B7D007407121893AA8282
:105A1300AB831220447403121519AA18AB19122A66
:105A2300A0740F02769E74F7120E6274FD1215FCB9
:105A3300851882851983740AF07401121893E9F0AA
:105A43007402121893EA125A5C122AA0024BCF85F1
:105A53001882851983EAF0A3EBF0AA18AB19227414
:105A6300F6120E6274F71215FCEAFEEBFF125AB23D
:105A730012435F7402125BDAAA18AB191222F6EE14
:105A8300242E12432D2430126AE0121506740212DA
:105A930015DE79831A1AEFFB1236347402121519C4
:105AA300E9F5087007EEFAEFFB12351A02703C12A3
:105AB30057ED74012274F0120E62127587121824C6
:105AC3007808790C120CFB78081214FE7A797B1D86
:105AD3000245B274F4120E6274C61215FC90051CD2
:105AE300E0640F6010851882851983742E125A5C46
:105AF3001235E680277A707B1D12370C1241DE12B5
:105B03000AEB88088909E4F50AF50B78081214FEF4
